:1000000070EF05F00000000000EF00F000000000BD
:0A0010000000000000000000F3D71C
:0E001C00030E0D6E0D2EFED700000000120028
:10002A00020E0C6EC80E0D6E0D2EFED70C2EFCD7CE
:02003A001200B2
:02003C001200B0
:0E003E00026A016A006A086A036A000E120074
:10004C000B840BAE31EF00F0010E036E026A016AF5
:0A005C00006A0A360232FF0E12009D
:10006600086A096A100E0C6E013408360936045007
:10007600085E0550D8A0053C095ED8B007D00450EC
:1000860008260550D8B0053C0926D890003601361A
:060096000C2EEAD7120057
:10009C00000173BF02D0839E01D0838E73BD02D04A
:1000AC00839C01D0838C73BB02D0839A01D0838A4A
:1000BC0073B902D0839801D083882BB002D083848B
:1000CC0001D083948386B4DF839673B702D0839E6A
:1000DC0001D0838E73B502D0839C01D0838C73B313
:1000EC0002D0839A01D0838A73B102D0839801D055
:1000FC0083882BB002D0838401D08394838698DFCD
:0E010C0083962BA002D08BDF01D082DF120081
:08011A000AAE029E000E120065
:080122000B6A0B86FF0E1200B0
:10012A000B800BAEA1EF00F0026A0AAEFF0E026E60
:0C013A00016E006E0A360232FF0E120049
:0E014600000000000000000000000000120099
:100154000001706B050E705D0AE270516E25E16E50
:10016400000E6F21E26E200EE66E702BF3D77051F5
:100174006E25E16E000E6F21E26EE66A7007705123
:100184006E25716F000E6F21726F0A0E046E000EE1
:10019400056E6CC000F06DC001F063DF08C000F0B4
:1001A40009C001F0300E002671C0E1FF72C0E2FF09
:1001B40000C0E6FF0A0E046E000E056E6CC000F06F
:1001C4006DC001F04EDF00C06CF001C06DF0000E98
:1001D400011802E1000E001801E102D07007CFD728
:0201E400120007
:1001E6000C6A0E6A0250D8A40CEF01F001C002F0AE
:1001F60000C001F0006A0E860250D8A40CEF01F090
:1002060001C002F0016A0E960E880250D8B41EEFA5
:1002160001F00E50035ED8A4D8A023EF01F0D890C9
:1002260002BE28EF01F0003601360236032E13EF28
:1002360001F023EF01F0010E0C6EFEDE2BEF01F054
:10024600020E0C6E00DF2BEF01F0040E0C6E62DF67
:02025600120094
:100258000B820BAE36EF01F0036802680168006894
:080268000A360232FF0E1200FB
:0C0270002B906CC073F012DF2B8012008A
:10027C00C26A070EC012C08E62C000F00036009039
:10028C00003600900050C212C28057DFC282C2A258
:10029C0001D0FDD7C4CF01F0006AC3500012000E8C
:0602AC000112C2901200D5
:1002B2000001686B696B62C06AF063C06BF0800E0C
:1002C2006319006E800E005C02E1000E625D0BE2BB
:1002D200010E686F000E696F625100086A6F63C099
:1002E2006BF0000E6B576AC06CF06BC06DF064C0AF
:1002F2006EF065C06FF02DDF060E666F000E676F41
:10030200000E006E6751005C02E16651000819E2BE
:1003120066516425E16E67516521E26E010E665DEC
:10032200006E000E6759016E00506425E96E01509F
:100332006521EA6EEECFE6FF010E665F000E675B97
:10034200DFD764C0E1FF65C0E2FF200EE66E6851B0
:1003520069111AE0666B676B66516425E96E675135
:100362006521EA6EEE50200A03E1664B672BF4D753
:10037200010E665F000E675B66516425E16E675190
:0A0382006521E26E2D0EE66E1200FA
:10038C0010D0800E0001626F1AD0C00E626F17D0B1
:10039C00940E626F14D0D40E626F11D0800E626F07
:1003AC000ED000016251010AECE06251020AEDE04C
:1003BC006251030AEDE06251040AEDE0EFD76305E8
:1003CC00006E6251002600C062F000C073F060DE67
:1003DC002B90666B66516425E96E000E6521EA6E02
:1003EC00EE520BE066516425E96E000E6521EA6E53
:0E03FC00EECF6CF037DF662BEDD72B801200B2
:10040A0000C008F00150006E016A026A036A0B6AB2
:10041A000C6A016A026A036A960E036E0A6A00AEE1
:10042A001DEF02F0081E001E082AD8B4002A0A8E00
:10043A0000C001F008C000F0086A026ACFDE1200AC
:10044A000450000A12E10550000A0FE10650000AA2
:10045A000CE10750000A09E1FF0E006EFF0E016E63
:10046A007F0E026EFF0E036E1200086A096A0750B9
:10047A00D8B4D0EF02F00350D8B4D4EF02F002504F
:10048A0006180A6E028E068E0E6A02C008F001C0B5
:10049A000CF000C00DF004500D5E0550D8A0053CCC
:1004AA000C5E0650D8A0063C085E086A0C6A0D6A03
:1004BA00D8A067EF02F0D890023201320032083237
:1004CA00010E0E6E0750035ED8A074EF02F07E0E86
:1004DA000E240326D8B0D8EF02F07AEF02F07E0E8F
:1004EA000E240326D8A0DCEF02F0180E0B6E0D3690
:1004FA000C3608360036013602360E360450005ED7
:10050A000550D8A0053C015E0650D8A0063C025E04
:10051A0006340E120EA095EF02F00D80A0EF02F045
:10052A00045000260550D8B0053C01260650D8B024
:10053A00062802260D900B2E7CEF02F0C6EF02F081
:10054A00D8900036013602360E360450005E055049
:10055A00D8A0053C015E0650D8A0063C025E0634CF
:10056A000E10010B0D26D8B00C2AD8B4082AD8A42C
:10057A00C6EF02F008320C320D32032AD8B4D8EF93
:10058A0002F00AAE089E0850026E0C50016E0D5021
:10059A00006EDEEF02F0010EBFDDDEEF02F0020EAA
:1005AA0049DDDEEF02F0040E52DEDEEF02F0080E45
:0405BA0048DD120006
:1005BE000B6A0350D8B425EF03F002500A6E028E78
:1005CE008E0E035E03AE29EF03F0036C080E035C80
:1005DE00D8A004EF03F0036E013602C001F0026AE8
:1005EE00080E035CD8A004EF03F0036E0136016A17
:1005FE000350D8A4D8900EEF03F00350D8B40EEFEA
:10060E0003F0D89002320132032E08EF03F00BBC38
:10061E0001A01BEF03F0D8A01BEF03F0012AD8B402
:10062E00022A02BE38EF03F00AAE3DEF03F0021EBF
:10063E00011E012AD8B4022A3DEF03F0026A016AB4
:10064E003DEF03F00B800BAE41EF03F0026A0AAEF2
:10065E0041EF03F0FF0E026E016E0A36023241EFD9
:10066E0003F0010E0C6E5ADD43EF03F0000E0C6E1C
:10067E0043EF03F0FF0E0C6E0150006E0250016E40
:02068E00120058
:10069000086A096A000E07620364CDEF03F0025096
:1006A00006180A6E075003267E0ED8A05EEF03F0F0
:1006B000035ED8B0D1EF03F062EF03F0035ED8A081
:1006C000D5EF03F0028E068E02C00EF001C00BF0D3
:1006D00000C00DF000500402F4CF0CF001500502F0
:1006E000F4CF00F0F3CF08F00402F3500C26F450DE
:1006F0000822000E00220D500502F3500C26F45083
:100700000822000E002202500402F3500826F45082
:10071000002202500502016A000E0122F350002659
:10072000F45001220D500602F3500826F450002226
:10073000026A000E012202220B500602F35000262C
:10074000F4500122000E02220E500602F350012640
:10075000F450022202BEB5EF03F00836003601362F
:1007600002360306D8B4D5EF03F0C8EF03F0D88003
:10077000800E08640030000E002201220222D8A060
:10078000C8EF03F0023201320032034AD1EF03F026
:100790000AAE029E000ED7EF03F0010E50DCD7EF39
:1007A00003F0020E59DDD7EF03F0040E4FDC120008
:1007B000959695949598959A959C959E83968394F5
:1007C000839E839C839A839830DC2FDC2EDC838A83
:1007D0008388838633DC839628DC83862FDC8396AC
:1007E00024DC83862BDC839620DC8398838626DCBE
:1007F00083961BDC838622DC8396839A838E838692
:100800001DDC839612DC839E8388838617DC8396A7
:100810008398838613DC839608DC83860FDC8396BB
:10082000838883860BDC839600DC8398838606DCD2
:100830008396838E838C838A838883861EEC00F064
:0A084000839615EC00F02B801200E7
:10084A000900F5CFE6FF0006FBE10106F9E1120017
:10085A00566A576A586A596A5A6A5B6A32C062F0BB
:10086A0008DD00C056F001C057F057325632579E85
:10087A0057BC578E57325632579E57BC578EC0DDDB
:10088A00000E046E000E056E000E066E890E076ECF
:10089A00D7DD000E046E000E056E480E066E850E3C
:1008AA00076EF1DE00C058F001C059F002C05AF0DC
:1008BA0003C05BF056C000F057C001F0A1DD000E86
:1008CA00046E000E056E000E066E870E076EB8DD0A
:1008DA00000E046E000E056E480E066E850E076E3B
:1008EA00D2DE00C05EF001C05FF002C060F003C05B
:1008FA0061F058C000F059C001F05AC002F05BC064
:10090A0003F058DE00C05CF001C05DF05EC000F08C
:10091A005FC001F060C002F061C003F04BDE00C0AE
:10092A0056F001C057F05CC062F05DC063F0360E4D
:10093A000001646F000E656FB7DC56C062F057C0E5
:10094A0063F0460E646F000E656FAEDC2BD0010EAD
:10095A00626F010E636F360E646F000E656F11DDF4
:10096A00400E346E000E356E30D0010E626F070EE7
:10097A00636F360E646F000E656F03DD800E346E92
:10098A00000E356E22D0010E626F0D0E636F360EA9
:10099A00646F000E656FF5DC200E346E000E356E46
:1009AA0014D013D0000E331802E1000E3218CFE033
:1009BA00000E331802E1010E3218D7E0000E331888
:1009CA0002E1020E3218DFE0ECD734C081FF1200D8
:1009DA00566A576A32C062F04CDC00C056F001C059
:1009EA0057F057325632579E57BC578E57325632A7
:1009FA00579E57BC578E00C062F001C063F0360E96
:100A0A000001646F000E656F4FDC56C062F057C07C
:100A1A0063F0460E646F000E656F46DC46D0010E29
:100A2A00626F010E636F360E646F000E656FA9DC8C
:100A3A00020E626F010E636F460E646F000E656FE1
:100A4A00A0DC400E346E000E356E42D0010E626F8D
:100A5A00070E636F360E646F000E656F92DC020E2E
:100A6A00626F070E636F460E646F000E656F89DC56
:100A7A00800E346E000E356E2BD0010E626F0D0E95
:100A8A00636F360E646F000E656F7BDC020E626F59
:100A9A000D0E636F460E646F000E656F72DC200EDA
:100AAA00346E000E356E14D013D0000E331802E1E6
:100ABA00000E3218B4E0000E331802E1010E3218AB
:100ACA00C5E0000E331802E1020E3218D6E0ECD768
:060ADA0034C081FF120090
:100AE000EEEC05F02C6A2D6A2E6A2F6A306A316AA4
:100AF0001C0EC16E936A200E816E010E966E58DE3A
:100B00000C0E0001736F4EEC00F01C0E736F4EEC78
:100B100000F01C0E736F4EEC00F0000E84B0010E5E
:100B20002E6E2F6A000E2F1802E1010E2E180FE113
:100B300030500108306E3150000E3156210E0C6ECF
:100B4000760E0D6E0D2EFED70C2EFCD700002E6AF1
:100B50002F6A000E311802E1010E301814E12C6AE0
:100B60002D6A800E2D18006E800E005C02E1030ECF
:100B70002C5C08E22CC032F02DC033F02EDF2C4A62
:100B80002D2AEFD71ED00001020E626F010E636F97
:100B9000150E646F000E656FC6EC01F02C6A2D6AAD
:100BA000800E2D18006E800E005C02E1030E2C5C9E
:100BB00008E22CC032F02DC033F04FDE2C4A2D2A33
:060BC000EFD7ABD7FFD711
:100BDC0010EE15F0160E006E010E016EC60EF66EBE
:0E0BEC000B0EF76E000EF86E25EC04F01200F2
:100BC60020204832314131202049522020434E59BD
:060BD60037302020200052
:020000040030CA
:0E0000000008181EFF8180FF0FC00FE00F40A8
:00000001FF
